:100000000C9463000C94540E0C94810E0C945B04BD
:100010000C942E040C9401040C948B000C948B0013
:100020000C948B000C948B000C948B000C948B0024
:100030000C948B000C948B000C948B000C948B0014
:100040000C944E020C948B000C9474050C947D0659
:100050000C9436070C948B000C948B000C948B0042
:100060000C948B000C948B000000000024002700EF
:100070002A0000000000250028002B0000000000DE
:1000800023002600290004020202020204040204E2
:1000900004040404030303030303400204081020C0
:1000A000018001020408102001020408102001034D
:1000B000040600000000000000070002000000002D
:1000C00000008904DD0611241FBECFEFD8E0DEBF9B
:1000D000CDBF11E0A0E0B1E0EAEBFEE102C0059087
:1000E0000D92AA34B107D9F712E0AAE4B1E001C039
:1000F0001D92AB36B107E1F710E0C6ECD0E004C0CA
:100100002297FE010E94200FC23CD107C9F70E942E
:10011000E50B0C945B0F0C940000A0E0B0E0E3E969
:10012000F0E00C942C0FEC01A880B980CA80DB8031
:10013000A114B104C104D10441F484E2A82E89EDD4
:10014000B82E8BE5C82E87E0D82EC601B5012DE16B
:1001500033EF41E050E00E94030F27EA31E440E032
:1001600050E00E94AE0E7B018C01C601B5012DE16D
:1001700033EF41E050E00E94030FCA01B9012CEEB9
:1001800034EF4FEF5FEF0E94AE0E6E0D7F1D801FAC
:10019000911F97FF04C06150704080409048688371
:1001A00079838A839B839B01AC015F77B901CA0184
:1001B000CDB7DEB7EAE00C94480F0E948D00089599
:1001C00080E091E00E948D0008956093000170939B
:1001D000010180930201909303010895FB01DC016A
:1001E00002C001900D9241505040D8F708950F93EE
:1001F0001F9308E511E0C8016FEF40E020E00E9486
:100200008A046AEF70E080E090E00E94B002C801CA
:1002100060E040E020E00E948A041F910F91089561
:100220000F931F9308E511E0C80160E04FEF20E055
:100230000E948A046AEF70E080E090E00E94B002C1
:10024000C80160E040E020E00E948A041F910F9105
:100250000895EF92FF920F931F9363EF73E985E088
:1002600090E02FE332E44FE050E00E94E70D7B0185
:100270008C0126E030E040E050E00E94030F2D5456
:100280003E4E4F4F5F4FCA01B90122E030E040E0DF
:1002900050E00E94030F2452324040405040CA01B7
:1002A000B90128EE33E040E050E004C02AE030E03D
:1002B00040E050E00E94030FC901DA01BC01CD010A
:1002C00064367105810591058CF760934B0170933D
:1002D0004C0180934D0190934E0186E392E0B8016A
:1002E000A7012AE030E00E94280D1F910F91FF9096
:1002F000EF900895EF92FF921F93DF93CF93CDB7C6
:10030000DEB72A970FB6F894DEBF0FBECDBF88E5E3
:1003100091E00E94A504882331F088E591E060E037
:1003200040E02FEF05C088E591E060E040E020E08C
:100330000E948A0486E392E0BE016F5F7F4F4AE02D
:1003400050E00E94A10D892B09F480C08981992772
:1003500087FD9095A92FB92F20914B0130914C0129
:1003600040914D0150914E01281739074A075B070C
:1003700029F080914A01882309F07CC010914A013C
:1003800040E050E020E030E0BE016E5F7F4F7E0134
:100390000894E11CF11C112339F4F701E20FF31F5B
:1003A000D901AA5FBE4F2AC0113039F4FB01E20F18
:1003B000F31FD901A65FBE4F21C04115510519F4A5
:1003C00041E050E00FC04130510579F4FB01E20FEC
:1003D000F31FD901A25FBE4F90818C91981791F0C5
:1003E00042E050E021E030E00DC04230510551F4D0
:1003F000FB01E20FF31FD901AE5EBE4F90818C91DD
:100400009817C1F52F5F3F4F2430310524F235C0D6
:100410000E94290180914A018F5F80934A0116C092
:100420004130510519F40E94100102C00E94F700EA
:1004300010924A0184EF99E6AEE0B0E080934B0160
:1004400090934C01A0934D01B0934E0188E591E04B
:100450004FEF5FEF6FEF7FEF0E94D8042A960FB641
:10046000F894DEBF0FBECDBFCF91DF911F91FF90FB
:10047000EF90089510924A01E9CF123088F6C8CF64
:1004800080E00E9444030E94050E86E392E049E169
:1004900050E060E070E00E946F0D08951F920F928F
:1004A0000FB60F9211242F933F934F935F936F9347
:1004B0007F938F939F93AF93BF932091530130917C
:1004C0005401409155015091560170915701DA0144
:1004D000C9010296A11DB11D672F6A5F6D3730F00B
:1004E0006D57DA01C9010396A11DB11D6093570133
:1004F0008093530190935401A0935501B0935601FA
:1005000080914F0190915001A0915101B091520101
:100510000196A11DB11D80934F0190935001A093AE
:100520005101B0935201BF91AF919F918F917F91F3
:100530006F915F914F913F912F910F900FBE0F9050
:100540001F9018958FB7F894209153013091540162
:1005500040915501509156018FBFB901CA010895CC
:100560009B01AC017FB7F89480914F0190915001AD
:10057000A0915101B091520166B5A89B05C06F3F93
:1005800019F00196A11DB11D7FBFBA2FA92F982F79
:100590008827860F911DA11DB11D63E0880F991F4B
:1005A000AA1FBB1F6A95D1F7BC012DC0FFB7F894F5
:1005B00080914F0190915001A0915101B091520151
:1005C000E6B5A89B05C0EF3F19F00196A11DB11D2E
:1005D000FFBFBA2FA92F982F88278E0F911DA11D1D
:1005E000B11DE3E0880F991FAA1FBB1FEA95D1F741
:1005F000861B970B885E9340C8F2215030404040E4
:10060000504068517C4F211531054105510571F667
:100610000895789484B5826084BD84B5816084BD7A
:1006200085B5826085BD85B5816085BDEEE6F0E06B
:10063000808181608083E1E8F0E0108280818260C7
:100640008083808181608083E0E8F0E08081816048
:100650008083E1EBF0E0808184608083E0EBF0E078
:10066000808181608083EAE7F0E08081846080831C
:1006700080818260808380818160808380818068C6
:1006800080831092C1000895982F882311F492E17D
:1006900006C0813011F493E102C08E3008F09E5004
:1006A0009770809104018295880F880F807C892B38
:1006B00080937C0080917A00806480937A0080919E
:1006C0007A0086FDFCCF2091780040917900942F2C
:1006D00080E030E0282B392BC9010895CF93DF93B8
:1006E000482F50E0CA0186569F4FFC0134914A576B
:1006F0005F4FFA018491882369F190E0880F991F78
:10070000FC01E859FF4FA591B491FC01EE58FF4F51
:10071000C591D491662351F42FB7F8948C91932FFF
:10072000909589238C93888189230BC0623061F472
:100730002FB7F8948C91932F909589238C9388816F
:10074000832B88832FBF06C09FB7F8948C91832B8F
:100750008C939FBFDF91CF910895482F50E0CA013D
:1007600082559F4FFC012491CA0186569F4FFC0180
:1007700094914A575F4FFA013491332309F440C0F2
:10078000222351F1233071F0243028F42130A1F0DC
:10079000223011F514C02630B1F02730C1F02430DA
:1007A000D9F404C0809180008F7703C080918000CD
:1007B0008F7D8093800010C084B58F7702C084B590
:1007C0008F7D84BD09C08091B0008F7703C0809178
:1007D000B0008F7D8093B000E32FF0E0EE0FFF1F9D
:1007E000EE58FF4FA591B4912FB7F894662321F4EA
:1007F0008C919095892302C08C91892B8C932FBF6B
:1008000008951F920F920FB60F9211242F933F93CA
:100810004F935F936F937F938F939F93AF93BF9308
:10082000EF93FF938091590190915A01892B29F000
:10083000E0915901F0915A010995FF91EF91BF9113
:10084000AF919F918F917F916F915F914F913F9168
:100850002F910F900FBE0F901F9018951F920F921F
:100860000FB60F9211242F933F934F935F936F9383
:100870007F938F939F93AF93BF93EF93FF93809159
:10088000590190915A01892B29F0E0915901F09179
:100890005A010995FF91EF91BF91AF919F918F916F
:1008A0007F916F915F914F913F912F910F900FBE6C
:1008B0000F901F9018951F920F920FB60F92112450
:1008C0002F933F934F935F936F937F938F939F9358
:1008D000AF93BF93EF93FF938091590190915A0189
:1008E000892B29F0E0915901F0915A010995FF9166
:1008F000EF91BF91AF919F918F917F916F915F9198
:100900004F913F912F910F900FBE0F901F90189510
:1009100008950895DF93CF9300D00F92CDB7DEB73F
:10092000FE01319683E0DF011D928A95E9F7698324
:100930004A832B8386E392E0BF010E94BB080F909D
:100940000F900F90CF91DF910895DF93CF9300D058
:10095000CDB7DEB786E392E0BE016F5F7F4F0E94A6
:100960003209892B11F080E003C08981811181E077
:100970000F900F90CF91DF9108951F93539886E3C6
:1009800092E00E94A10886E392E00E94760610E0C1
:100990001F5F1F3111F480E009C061E070E080E06A
:1009A00090E00E94B0024B9BF3CF81E01F9108952D
:1009B000EF92FF920F931F93CF93DF93EC017A0195
:1009C0008B0153984A30510561057105E8F1CE015C
:1009D0000E94BD04882309F03FC091E3E91695E722
:1009E000F90690E0090790E01907F8F0AEE1EA1681
:1009F000F1040105110520F4EE24FF24870108C04D
:100A000082EE9FEFAFEFBFEFE80EF91E0A1F1B1F2C
:100A1000CE01B801A7010E94BD04E114F104010553
:100A20001105B9F0882311F317C09FE1E916F1040D
:100A30000105110508F44EC082EE9FEFAFEFBFEF46
:100A4000E80EF91E0A1F1B1FC801B7010E94B00261
:100A500041C0882309F43EC080917A0000E087FFFE
:100A600006C001E080917A008F7780937A0010E0D1
:100A700000B607FE04C011E080B78F7780BF81E029
:100A800068E874E040E050E00E941E0E83B7817F6A
:100A9000846083BFF8944B9B0DC083B7816083BF94
:100AA00085B7806685BF8F7D85BF7894889583B72D
:100AB0008E7F83BF789481E00E94410E002329F04D
:100AC00080917A00806880937A00112319F080B7B2
:100AD000806880BFDF91CF911F910F91FF90EF90C1
:100AE00008950895089508951F920F920FB60F92DA
:100AF00011242F933F934F935F936F937F938F9323
:100B00009F93AF93BF93CF93DF93EF93FF93809126
:100B1000C00082FD0AC02091C6004091650250913C
:100B200066024115510521F410C08091C600CBC06A
:100B300080916402882319F080E2282706C02D37AF
:100B400021F481E080936402BEC080916402882316
:100B5000E9F42E3721F441155105C1F008C02F37B3
:100B600021F44530510519F411C02D3779F4109254
:100B7000640210926302109262021092610210925B
:100B8000600210925F0210925E0225C01092640211
:100B90004230510541F14330510544F441155105AE
:100BA00089F04130510509F08EC018C0443051051C
:100BB00009F445C04430510514F14530510509F0A0
:100BC00082C06EC02E3709F07EC081E090E0909325
:100BD00066028093650210925D0275C020936102E7
:100BE00082E090E058C010926202209363028091EC
:100BF000610281508093610283E090E04CC030E05C
:100C00008091620290916302282B392B309363020A
:100C10002093620240916102415040936102232B74
:100C200019F08DEE91E002C08BE591E090935F02A8
:100C300080935E02442369F184E090E02CC0E0914F
:100C40005E02F0915F02309701F1EF01CB5BDF4F65
:100C500088819981019665E470E00E94CD0EAC0117
:100C6000E95BFF4F80819181E754F04048175907B5
:100C700039F088819981E80FF91F208359834883CF
:100C8000809161028150809361028091610288238A
:100C9000D1F485E090E0909366028093650213C0E2
:100CA00081E080935D0210926602109265021092BC
:100CB000630210926202109261021092600210921E
:100CC0005F0210925E02FF91EF91DF91CF91BF9191
:100CD000AF919F918F917F916F915F914F913F91D4
:100CE0002F910F900FBE0F901F901895FC018091CF
:100CF00005018823E1F311A208951F920F920FB608
:100D00000F9211242F933F934F935F936F937F9391
:100D10008F939F93AF93BF93EF93FF932091E9013C
:100D20003091EA018091EB019091EC01281739078D
:100D300059F48091C1008F7D8093C1008091C100E2
:100D400080648093C10016C0E091EB01F091EC014A
:100D5000EC55FE4F40818091EB019091EC010196A2
:100D600065E470E00E94CD0E9093EC018093EB015E
:100D70004093C600FF91EF91BF91AF919F918F91EA
:100D80007F916F915F914F913F912F910F900FBE87
:100D90000F901F901895CF93DF93FB01EC01A88172
:100DA000B98160817181448155811296ED91FC91E8
:100DB00013970995DF91CF9108958F929F92AF92EB
:100DC000BF92CF92DF92EF92FF920F931F9300D0CA
:100DD00000D00F92EDB7FEB7319684E0ADB7BEB745
:100DE00011968C9383E0818387E0828385E08383FF
:100DF00081E0848386E392E06BE571E044EA51E0B0
:100E000025EC30E004EC10E0B0ECEB2EF12CA1EC82
:100E1000CA2ED12CF2ECAF2EB12CE6EC8E2E912CFA
:100E20000E9487098AE191E090933702809336020D
:100E30008DEE91E090935902809358028DE592E0F7
:100E400090935B0280935A0210925D020F900F9074
:100E50000F900F900F901F910F91FF90EF90DF90E8
:100E6000CF90BF90AF909F908F9008951F920F9258
:100E70000FB60F9211242F933F934F935F936F936D
:100E80007F938F939F93AF93BF93EF93FF932091A3
:100E9000E9013091EA018091EB019091EC01281772
:100EA000390761F48DE060E00E94AD038091C100DC
:100EB0008F7B8093C10081E080930501FF91EF91CA
:100EC000BF91AF919F918F917F916F915F914F9162
:100ED0003F912F910F900FBE0F901F901895FF928A
:100EE0000F931F93082FF92E162F862F8D578330BF
:100EF00048F4802F6DE70E94A20B60E26127802FEB
:100F00009F2D01C0802F0E94A20B1F910F91FF9077
:100F10000895CF92DF92EF92FF920F931F93CF939A
:100F2000DF93082FF92EE62E172F6A01E9012134ED
:100F3000310518F0CFEFDFEF47C0109205018DE0CB
:100F400061E00E94AD032091E9013091EA018091B6
:100F5000EB019091EC012817390731F467E070E05C
:100F600080E090E00E94B002802F9F2D6EE70E94EB
:100F7000A20BCE018E5F682F802F9F2D0E946F07DE
:100F8000802F9F2D612F0E946F07802F9F2D6E2D28
:100F90000E946F0710E008C0EC0DFD1D802F9F2DF3
:100FA00060810E946F071F5FE12FF0E0EC17FD07E3
:100FB00098F3802F9F2D6FE70E94A20B6DE070E0E9
:100FC00080E090E00E94B002CE01DF91CF911F91AE
:100FD0000F91FF90EF90DF90CF900895AF92BF9266
:100FE000CF92DF92EF92FF920F931F93DF93CF93F5
:100FF000CDB7DEB7C054D0400FB6F894DEBF0FBEF9
:10100000CDBF5C016115710519F400E010E029C045
:101010007B0100E010E06E010894C11CD11CF701B7
:101020000894E11CF11C84918823A1F0F601E00FE3
:10103000F11F80830F5F1F4F0034110581F7C50139
:1010400060E070E0A60120E430E00E94890700E043
:1010500010E0E5CFC50160E070E0A60198010E94B4
:101060008907C801C05CDF4F0FB6F894DEBF0FBE22
:10107000CDBFCF91DF911F910F91FF90EF90DF9047
:10108000CF90BF90AF900895CF92DF92EF92FF92F2
:101090000F931F93CF93DF936C017B01EA016115DE
:1010A000710519F4C0E0D0E02DC04115510551F192
:1010B0004134510500F10FE310E020E030E0A701DA
:1010C000420F531FC801821B930B9C01C60160E0B5
:1010D00070E00E9489070C171D07A1F0C801805C11
:1010E0009F4FC817D90708F4CE019801C817D90730
:1010F00048F08C01E4CF60E070E0A7019E010E94FF
:101100008907EC01CE01DF91CF911F910F91FF90E4
:10111000EF90DF90CF900895DF93CF930F92CDB7EC
:10112000DEB7698360E070E0AE014F5F5F4F21E0A2
:1011300030E00E94890781E090E00F90CF91DF912D
:101140000895DF93CF9300D000D0CDB7DEB74983A9
:101150005A836B837C8360E070E3AE014F5F5F4F27
:1011600024E030E00E9489070F900F900F900F90BD
:10117000CF91DF910895AB0161E070E223E030E0B0
:101180000E9489070895AF92BF92CF92DF92EF92AB
:10119000FF920F931F93CF93DF93EC01F894EAA192
:1011A000FBA1DF01A95BBF4F11961C921E928D918E
:1011B0009C91EB5BFF4F91838083ECA1FDA110829A
:1011C0007894CE010E9489070E94A20268877987DD
:1011D0008A879B87ECA1FDA180818823D9F50E9495
:1011E000A202288539854A855B85621B730B840BB7
:1011F000950B6A157B058C059D0560F5EBCF4AA123
:101200005BA1FA01EB5BFF4F80819181D7012D91AA
:101210003C918217930710F420813181C801BA01F3
:10122000A9010E94EE00EAA1FBA1EB5BFF4F8081C8
:101230009181F7019183808320E030E0C901DF9143
:10124000CF911F910F91FF90EF90DF90CF90BF90C3
:10125000AF900895ECA1FDA18081882381F62FEF46
:101260003FEFECCFAF92BF92CF92DF92EF92FF921F
:101270000F931F93DF93CF9300D0CDB7DEB78B01D1
:1012800022E030E03A83298360E375E040E050E0FB
:1012900020E030E07E010894E11CF11CB4E6AB2EA6
:1012A000B12CC12CD12C0E94C3080F900F90CF916C
:1012B000DF911F910F91FF90EF90DF90CF90BF9043
:1012C000AF9008950F931F938C0140E051EE60E0C2
:1012D00070E00E94CB098DE061E00E946E0341E066
:1012E000F80146A32091E9013091EA018091EB01D8
:1012F0009091EC012817390731F4409305018DE0F6
:1013000060E00E94AD031F910F91089508958F92A0
:101310009F92AF92BF92CF92DF92EF92FF920F9384
:101320001F93DF93CF93CDB7DEB7FC0113821282F8
:1013300088EE93E0A0E0B0E084839583A683B78332
:1013400084E391E09183808375876487578746871C
:10135000318B208B138B028BF58AE48AD78AC68A5D
:10136000B18EA08E938E828E8F85848F8889858F93
:101370008989868F8A89878F8B8980A3CF91DF9116
:101380001F910F91FF90EF90DF90CF90BF90AF90A3
:101390009F908F900895AF92BF92DF92EF92FF924D
:1013A0000F931F93CF93DF93EC017A018B01DD2420
:1013B000D39491E0A92EB12CEC89FD89DD2069F050
:1013C000C50108A002C0880F991F0A94E2F7808324
:1013D00060E874E88EE190E005C0108260E472E499
:1013E0008FE090E0A80197010E94E10E215030406B
:1013F00040405040569547953795279580E12030DD
:10140000380720F0DD2011F0DD24D6CFE889F989F6
:101410003083EA89FB89208319A2EE89FF89408104
:1014200021E030E0C9010C8C02C0880F991F0A949A
:10143000E2F7482B4083EE89FF894081C9010D8C7A
:1014400002C0880F991F0A94E2F7482B4083EE8967
:10145000FF894081C9010E8C02C0880F991F0A9430
:10146000E2F7482B4083EE89FF8980810F8C02C010
:10147000220F331F0A94E2F7209528232083DF915F
:10148000CF911F910F91FF90EF90DF90BF90AF90A1
:101490000895AF92BF92CF92DF92EF92FF920F9397
:1014A0001F93CF93DF93EC017A018B01C22EDD24D1
:1014B000D39471E0A72EB12CEC89FD89DD2069F071
:1014C000C50108A002C0880F991F0A94E2F7808323
:1014D00060E874E88EE190E005C0108260E472E498
:1014E0008FE090E0A80197010E94E10E215030406A
:1014F00040405040569547953795279580E12030DC
:10150000380720F0DD2011F0DD24D6CFE889F989F5
:101510003083EA89FB892083E88DF98DC082EE89CA
:10152000FF89408121E030E0C9010C8C02C0880FA6
:10153000991F0A94E2F7482B4083EE89FF89408186
:10154000C9010D8C02C0880F991F0A94E2F7482B3D
:101550004083EE89FF894081C9010E8C02C0880F4B
:10156000991F0A94E2F7482B4083EE89FF89808116
:101570000F8C02C0220F331F0A94E2F72095282314
:101580002083DF91CF911F910F91FF90EF90DF901B
:10159000CF90BF90AF900895CF93DF93DC011E965C
:1015A0008D919C911F97EC01CB5BDF4FFC01E95BB8
:1015B000FF4F288139818081918128173907C9F728
:1015C0005696ED91FC915797408121E030E0C9019A
:1015D0005C960C905C9702C0880F991F0A94E2F702
:1015E0008095842380835696ED91FC915797408196
:1015F000C9015D960C905D9702C0880F991F0A94EF
:10160000E2F78095842380835696ED91FC9157975D
:101610004081C9015E960C905E9702C0880F991FA9
:101620000A94E2F78095842380835696ED91FC918D
:10163000579780815F960C905F9702C0220F331FEF
:101640000A94E2F72095282320831C96ED91FC91C3
:101650001D97E95BFF4F8081918192938293DF9187
:10166000CF910895DC011C96ED91FC911D97EB5BE9
:10167000FF4F81919191208131818B5B9F4F821B24
:10168000930B65E470E00E94CD0E0895DC011C967A
:10169000ED91FC911D97EB5BFF4F20813181E5546B
:1016A000F040DF01A95BBF4F8D919C9111972817E6
:1016B000390719F42FEF3FEF07C08D919C91E80F88
:1016C000F91F8081282F30E0C9010895CF93DF935F
:1016D000DC011C96ED91FC911D97EB5BFF4F208187
:1016E0003181E554F040EF01C95BDF4F888199817A
:1016F0002817390719F42FEF3FEF10C0888199811F
:10170000E80FF91F408188819981019665E470E0B6
:101710000E94CD0E99838883242F30E0C901DF9188
:10172000CF910895DC0191968C919197882339F09F
:101730005496ED91FC915597808186FFF9CF919653
:101740001C920895CF93DF93EC01462FEE85FF8521
:10175000EB5BFF4F80819181E554F040019665E499
:1017600070E00E94CD0E9C01DF01A95BBF4F8D91FF
:101770009C91119728173907D1F3EB5BFF4F8081BC
:101780009181E554F040E80FF91F4083EE85FF8515
:10179000EB5BFF4F31832083EE89FF89208181E05D
:1017A00090E00F8C02C0880F991F0A94E2F7282B53
:1017B000208381E089A3EC89FD8980818064808316
:1017C00081E090E0DF91CF910895CF93DF930E9465
:1017D00009038CB58F7B8CBD86E392E00E94620981
:1017E0000E944002C6E8D9E00E947A012097E1F306
:1017F0000E948609F9CFCF92DF92EF92FF920F936A
:101800001F93CF93DF937C016B018A01C0E0D0E08E
:101810000FC0D6016D916D01D701ED91FC91019042
:10182000F081E02DC7010995C80FD91F0150104064
:101830000115110571F7CE01DF91CF911F910F9125
:10184000FF90EF90DF90CF900895EF92FF920F936B
:101850001F93CF93DF937C018B01C0E0D0E0F801B0
:101860000F5F1F4F6491662359F0D701ED91FC91F2
:101870000190F081E02DC7010995C80FD91FEFCF66
:10188000CE01DF91CF911F910F91FF90EF900895BE
:10189000EF92FF920F931F938C01DC01ED91FC916D
:1018A0000190F081E02D6DE009957C01D801ED916A
:1018B000FC910190F081E02DC8016AE009959C013E
:1018C0002E0D3F1DC9011F910F91FF90EF900895BC
:1018D000CF93DF93EC016115710519F420E030E03E
:1018E0000FC0DB010D900020E9F71197A61BB70B85
:1018F000E881F9810280F381E02DAD0109959C0119
:10190000C901DF91CF9108954F925F927F928F929C
:101910009F92AF92BF92CF92DF92EF92FF920F937E
:101920001F93DF93CF93CDB7DEB7A1970FB6F8948F
:10193000DEBF0FBECDBF2C01742ECB01223008F4C8
:101940002AE019A231E2C32ED12CCC0EDD1E822E4C
:101950009924AA24BB24672D752FA50194010E9408
:10196000E10E79018A01C801B701A50194010E9425
:10197000AE0E472D461B0894C108D1084A3014F416
:10198000405D01C0495CF6014083E114F1040105AA
:10199000110521F07E2C5F2DC801DDCFC201B601FB
:1019A0000E94680CA1960FB6F894DEBF0FBECDBFA3
:1019B000CF91DF911F910F91FF90EF90DF90CF902B
:1019C000BF90AF909F908F907F905F904F900895C1
:1019D000CF92DF92EF92FF920F931F93CF93DF93FB
:1019E000EC016A017B012115310541F4E881F9819F
:1019F0000190F081E02D642F09951FC02A30310538
:101A0000D1F477FF17C0E881F9810190F081E02DD2
:101A10006DE209958C0144275527BA014C195D09DF
:101A20006E097F09CE012AE00E94840C9801280FDC
:101A3000391F04C02AE00E94840C9C01C901DF9177
:101A4000CF911F910F91FF90EF90DF90CF9008956D
:101A5000EF92FF920F931F937C010E94E80C8C0180
:101A6000C7010E94480C9C01200F311FC9011F9122
:101A70000F91FF90EF900895AF92BF92CF92DF92B7
:101A8000EF92FF920F931F93CF93DF935C016B0153
:101A9000EE24FF24C0E0D0E010C0D501ED91FC9110
:101AA00000811181C601BE010E940D0E682FC50183
:101AB000F8010995E80EF91E2196F60184819581B9
:101AC000C817D90750F3C701DF91CF911F910F912C
:101AD000FF90EF90DF90CF90BF90AF900895FC0102
:101AE00044835583668377830895CF93DF93EC0116
:101AF0000E94A202688779878A879B87E881F9819B
:101B00000284F385E02DCE0109959C0197FF15C055
:101B10000E94A202288539854A855B85621B730B6A
:101B2000840B950B2C813D814E815F816217730779
:101B30008407950718F32FEF3FEFC901DF91CF918D
:101B40000895CF92DF92EF92FF920F931F93CF935E
:101B5000DF936C018B017A01C0E0D0E009C0C601BF
:101B60000E94750D97FD07C0F80181938F012196A2
:101B7000CE15DF05A0F3CE01DF91CF911F910F911C
:101B8000FF90EF90DF90CF900895EF92FF920F9328
:101B90001F937B018C01611571058105910529F465
:101BA00020E030E040E050E00BC00E94E000A801DF
:101BB00097010E94030FAC01CB01DA019C01AD013A
:101BC000B901CA011F910F91FF90EF900895EF9214
:101BD000FF920F931F937B018C0162177307840799
:101BE000950764F4261B370B480B590BCA01B90142
:101BF0000E94C50DE60EF71E081F191FB701C80188
:101C00001F910F91FF90EF900895009729F0BC016C
:101C100080E090E00E94E5000895FC0184819581B8
:101C20006817790748F40190F081E02D309721F092
:101C3000E60FF71F8081089580E00895823000F557
:101C4000E82FF0E0EE0FFF1FE959FD4F718360832D
:101C5000882319F08130A1F408C0809169008C7F3D
:101C6000842B80936900E89A089580916900440F5D
:101C7000551F440F551F837F842B80936900E99A79
:101C80000895823080F4882319F0813021F402C055
:101C9000E89801C0E998E82FF0E0EE0FFF1FE9593E
:101CA000FD4F1182108208951F920F920FB60F926E
:101CB00011242F933F934F935F936F937F938F9351
:101CC0009F93AF93BF93EF93FF938091670290919F
:101CD0006802892B29F0E0916702F091680209956A
:101CE000FF91EF91BF91AF919F918F917F916F91F4
:101CF0005F914F913F912F910F900FBE0F901F90CA
:101D000018951F920F920FB60F9211242F933F93A5
:101D10004F935F936F937F938F939F93AF93BF93F3
:101D2000EF93FF938091690290916A02892B29F0C9
:101D3000E0916902F0916A020995FF91EF91BF91DC
:101D4000AF919F918F917F916F915F914F913F9153
:101D50002F910F900FBE0F901F901895629FD0018A
:101D6000739FF001829FE00DF11D649FE00DF11D56
:101D7000929FF00D839FF00D749FF00D659FF00D05
:101D80009927729FB00DE11DF91F639FB00DE11DF2
:101D9000F91FBD01CF0111240895AA1BBB1B51E1FE
:101DA00007C0AA1FBB1FA617B70710F0A61BB70BCB
:101DB000881F991F5A95A9F780959095BC01CD0170
:101DC0000895A1E21A2EAA1BBB1BFD010DC0AA1F7C
:101DD000BB1FEE1FFF1FA217B307E407F50720F094
:101DE000A21BB30BE40BF50B661F771F881F991F0F
:101DF0001A9469F760957095809590959B01AC0158
:101E0000BD01CF01089597FB092E05260ED057FD81
:101E100004D0D7DF0AD0001C38F450954095309597
:101E200021953F4F4F4F5F4F0895F6F7909580955E
:101E3000709561957F4F8F4F9F4F0895EE0FFF1F55
:101E40000590F491E02D09942F923F924F925F926A
:101E50006F927F928F929F92AF92BF92CF92DF92BA
:101E6000EF92FF920F931F93CF93DF93CDB7DEB71F
:101E7000CA1BDB0B0FB6F894DEBF0FBECDBF0994B3
:101E80002A88398848885F846E847D848C849B840A
:101E9000AA84B984C884DF80EE80FD800C811B8118
:101EA000AA81B981CE0FD11D0FB6F894DEBF0FBE47
:0A1EB000CDBFED010895F894FFCFB7
:101EBA000100000001013634323532343639363702
:101ECA00333632353733000000008C084408EE07F9
:101EDA00CB06320B660B460B760671057205730547
:101EEA0000000000A20BFB0B250C3C0D320B660B0D
:0A1EFA00460B920BCB09490ACC0AF3
:00000001FF
